:020000040800F2
:1000000030070020E1020008E9020008EB020008C6
:10001000ED020008EF020008F102000800000000F5
:10002000000000000000000000000000F3020008D3
:10003000F502000800000000F70200086926000829
:10004000FB020008FB020008FB020008FB0200089C
:10005000FB020008FB020008FB020008FB0200088C
:10006000FB020008FB020008FB020008FB0200087C
:10007000FB020008FB020008FB020008FB0200086C
:10008000FB020008FB020008FB020008FB0200085C
:10009000FB020008FB020008FB020008FB0200084C
:1000A000612800087D2900081D290008FB020008BE
:1000B000FB020008ED2900085D2A0008FB02000889
:1000C000FB020008FB020008FB020008FB0200081C
:1000D000FB02000885310008FB020008FB02000853
:1000E000FB020008FB020008FB020008FB020008FC
:1000F000FB020008FB020008F12B0008FB020008CD
:10010000FB0200080000000000000000FB020008E5
:10011000FB020008FB020008FB020008FB020008CB
:10012000FB020008FB020008FB020008FB020008BB
:10013000FB020008FB0200080000000000000000B5
:10014000FB020008FB020008FB02000800000000A0
:10015000000000000000000000000000000000009F
:10016000FB020008FB020008FB020008FB0200087B
:10017000FB020008FB020008FB020008FB0200086B
:10018000FB020008FB020008000000000000000065
:10019000FB02000800F002F800F092F80AA090E8D4
:1001A000000C82448344AAF10107DA4501D100F032
:1001B00087F8AFF2090EBAE80F0013F0010F18BF6D
:1001C000FB1A43F0010318471042000030420000C0
:1001D000103A24BF78C878C1FAD8520724BF30C873
:1001E00030C144BF04680C60704700000023002445
:1001F00000250026103A28BF78C1FBD8520728BF37
:1002000030C148BF0B6070476E2900F055817029DE
:1002100000F09F82662904F05C80652904F0598013
:10022000672904F05680612904F0558003681B0A91
:1002300028BF41F08001692900F00281642900F0A3
:10024000FF80752900F0FC806F2900F02C8278294E
:1002500000F06B82E92900F0C781E42900F0C48135
:10026000F52900F0C181EF2900F02982F82900F07A
:100270006A820368DB0928BF41F08001632900F02E
:10028000B187732900F0B687E32900F0C187F3290D
:1002900000F0C687002070471FB504F015F801F084
:1002A00057F804000020002103F052FE401C60605B
:1002B0000020002103F062FEE0601FBD10B510BDFC
:1002C00001F021F81146FFF7E7FF03F063F901F0B1
:1002D00003F903B4FFF7F2FF03BC01F047F9000094
:1002E0000948804709480047FEE7FEE7FEE7FEE7CA
:1002F000FEE7FEE7FEE7FEE7FEE7FEE70448054906
:10030000054A064B70470000E526000895010008E5
:10031000300100203007002030030020300300208F
:100320007CB51D4616460C00009001D02044401EAE
:10033000074B7B442A4669460190304600F0D5F8C9
:1003400005461CB10020694600F0E2F828467CBD55
:10035000E501000070B5064600F00CF8046805469B
:1003600030460A22002100F0C3FA2C6070BD7047AD
:100370007047704700487047D000002070B50446B1
:1003800085690068C10601D5302600E02026C00737
:1003900007D070BDD4E9012130469047206A401C47
:1003A00020626D1EF6D570BD70B504468569007873
:1003B000C00707D170BDD4E9012120209047206AF1
:1003C000401C20626D1EF6D570BD09684A0501D536
:1003D00040B27047C905FCD500B2704709684A05AC
:1003E00001D5C0B27047C905FCD580B2704770B561
:1003F0000C460546012A05D02878800600D5EA6912
:10040000002302E0012305E05B1C934202D2E05C82
:100410000028F9D1A869E618C01AA861286A18440A
:1004200028622846FFF7AAFF04E0D5E9012114F865
:10043000010B9047B442F8D32846FFF7B5FF70BDD3
:100440002DE9F0410646002410687529314616A5AD
:1004500010D0FFF7BAFF002802DA404213A507E0E8
:1004600031688A0701D512A502E0490704D511A514
:10047000012401E0FFF7B2FF00210A2206F1240760
:1004800009E0B0FBF2FCB0FBF2F302FB1C003030E1
:1004900078541846491C0028F3D123462A46304692
:1004A000BDE8F04100F0ADBA000000002D000000F2
:1004B0002B0000002000000011680268006A53054C
:1004C00001D508700AE0D30501D5088006E01306BF
:1004D00003D5C217C1E9000200E00860012070479F
:1004E00001694A1C02610878704700B58FB0CDE9F8
:1004F00001310021059105497944CDE903101146E8
:10050000684600F031F90FB000BD0000E5FFFFFFC5
:100510000A6802F8010B0A607047D1E900239A4289
:1005200002D2531C0B601070704700002DE9FF5F72
:1005300015468A460446DFF8AC80F8440027D8E91F
:1005400000103E46CDE9001010E03AF816106A4659
:1005500002A800F0B8FE411C07D02178890603D517
:10056000E269391891420DD80744761C207880063C
:1005700002D5E069B84205DDAE42E6DB3AF8160086
:100580000028E2D1A069C01BA0612046FFF7F6FE5B
:10059000D8E90010CDE90010002017E03AF8181053
:1005A0006A4602A800F08FFEB0F1FF3F81460BD0F3
:1005B00000250DF1080B05E0D4E901211BF8050029
:1005C00090476D1C4D45F7D308F10100B0428046BD
:1005D000E4DB206A384420622046FFF7E5FEBDE8F0
:1005E000FF9F00009E3D00002DE9F0418046D21D96
:1005F00022F007020025D2E90002F52915A614D041
:10060000011E72F1000106DA0023D0EB030063EB58
:10061000020211A608E0D8F800108B0701D50FA63A
:1006200002E0490701D50EA601251146002408F174
:10063000240704E000F0A0F930323A55641C50EA77
:100640000102F7D12B46324621464046BDE8F04133
:1006500000F0D7B9000000002D0000002B000000C2
:100660002000000030B4002100F1240408E002F072
:100670000705D208303542EA4372DB086554491C4D
:1006800052EA0305F3D10468002310A2250707D519
:10069000A40600D421B1C46901230DA2641EC46163
:1006A00030BC00F0AEB910B5044621461068FFF723
:1006B00095FE02462046BDE810400023D2E7D21D39
:1006C00022F00701D1E90023CCE700000000000080
:1006D00030000000F0B40D460188090502D5214C18
:1006E0007C4402E01F4C7C440E34002100F12406BF
:1006F00008E002F00F071209E75D42EA03721B09E6
:100700007754491C52EA0307F3D1027800231207F9
:1007100004D5702D06D009B1022311342246F0BC55
:1007200000F06FB901231034F8E770B504460D46A8
:1007300021461068FFF752FE024629462046BDE8D2
:1007400070400023C6E7D21D22F00703D3E900233F
:10075000C0E70368126843F0200303600823C36105
:100760000023B7E7003C00002DE9F05F894604460E
:100770004FF0000ADFF874B1FB44C0F820A0204617
:10078000E1688847002874D0252806D0D4E90121E3
:100790009047206A401C2062F1E700265F46204611
:1007A000E16888472028054607DB312D05D27819F6
:1007B00010F8200C08B10643F1E7B00701D526F088
:1007C0000406C4F81CA00027C4F818A02A2D09D0DC
:1007D000284602F033FD38B304EB8708303DC8F8F3
:1007E000185019E059F8041B204604EB8702916168
:1007F000E1688847012F054618D1E069002820DA12
:1008000026F020061DE0D8F8180000EB800005EB6C
:1008100040003038C8F818002046E168884705468F
:1008200002F00CFD0028EED1012F0AD02E2D08D1A8
:100830002046E16888477F1C0546022F46F02006C7
:10084000C4DBA069002803DA404246F00106A0613B
:10085000F00701D026F010066C2D0BD0682D09D0C2
:100860004C2D39D06A2D35D0742D35D07A2D33D01A
:1008700016E038E0E1682F4620468847B842054632
:1008800009D16C2F26D04FF48060E16806432046E2
:100890008847054604E06C2F1AD04FF48070064359
:1008A0000DB3A5F14100192802D8203546F40066A1
:1008B0004A462946204626604E46FFF7A5FC80B1F1
:1008C00001280BD0F61D26F0070000F1080956E7B5
:1008D0004020E4E78020D8E70020D6E706F10409AD
:1008E0004DE7284652E7206ABDE8F09F903B0000A4
:1008F0002DE9F04791460F4680460446002614F83D
:10090000015B2DB100F030F80068405DC007F6D102
:100910002B2D02D02D2D18D0641E4A463946204674
:1009200000F082FC27B13968A14201D1C7F80080EC
:100930004FF0020471050BD54042002803DDFFF79C
:1009400019FD0460A007BDE8F08746F48066E4E77F
:100950000028F8DAFFF70EFD04606FF00040F2E7C0
:1009600000487047D000002010B500F0F1FC001DD9
:1009700010BD00BFDD35000030B5B0F10A024FEA0E
:10098000900E71F100034EEA817EB0EB0E0061EB38
:1009900091014FEA101E4EEA017E10EB0E0041EB72
:1009A00011114FEA102E4EEA016E10EB0E0041EBD2
:1009B00011214FEA104E4EEA014E10EB0E0041EBB2
:1009C0001141401841F100014FEAD00040EA417066
:1009D0004FEAD10110EB80054FEA810444EA90749C
:1009E00044EB01046D1944EB0404521BA3414FF086
:1009F000000348BF0A3200D530BD401C41F1000160
:100A000030BD2DE9F0470D4699469246044600F167
:100A100024080168880604D5E06921F010012160EE
:100A200000E00120A84201DD471B00E00027A1698A
:100A30007A1902EB0900081AA0612078C00602D4D6
:100A40002046FFF79BFC002608E0D4E901211AF8B4
:100A500006009047206A401C761C20624E45F4DB5D
:100A60002078C0060AD52046FFF788FC06E0D4E9C6
:100A7000012130209047206A401C2062381EA7F1D7
:100A80000107F4DC07E0D4E9012118F805009047DC
:100A9000206A401C2062281EA5F10105F3DC2046D7
:100AA000FFF782FC2078000602D50220BDE8F0871F
:100AB0000120FBE770472DE9FF4F0C461E464FF023
:100AC000FF378BB0D2E90001DDF860800A908A46DA
:100AD000C1F30A5505B93D46002108464FF0000014
:100AE000BAF1000F00F4400005DA00EB80004FF48B
:100AF000400101EA50004FEA9059B9F1010F00DDC1
:100B0000B9460A9850EA4A000ED044F61050A5F2B1
:100B1000FF3545432F14B8F1000F1ED07542291E32
:100B20001EDDC9F100021CE0B8F1010F4FF000001A
:100B300001D0302103E0F24305E02154401CB042D3
:100B4000FBDB30460022002121540B99C1F80880BC
:100B5000C1E900200FB0BDE8F08FBD1B6D1CDEE7C2
:100B60004A4600DA694206A800F044FC06AB93E866
:100B7000070003AB83E8070050460A9900F0FDFC2C
:100B80008DE80700A0F500501F3800900398002D55
:100B90000ADD42F21F014A460844002303A90390DC
:100BA000684600F066FF09E0A0F500504A461F388D
:100BB000002303A90390684600F070FF8DE807004A
:100BC0000004000C03D04FF0FF30410800E0104655
:100BD000B8F1000F03D00022009215461EE0751EEA
:100BE00005D4FFF7C9FE303262556D1EF9D5B34604
:100BF0000122084302D000227F1C04E02078302824
:100C000001D100227F1E002A099784D01DE0112DFA
:100C100007DAFFF7B1FE303262556D1C50EA01026F
:100C2000F5D1084302D00098C8B10EE00021681E3B
:100C300005E0235C625C63542254401E491C8142DF
:100C4000F7DBAB46A81B401E0990002004F80B0000
:100C50000B98099AC0F80880C0E9002B7AE71126A2
:100C60004FF0000857E72DE9F04F88460446D21DA3
:100C700022F0070191B0D1E90001CDE90A0102F0AB
:100C8000A3FA02460B98C00F01D02D2007E0206880
:100C9000810701D52B2002E0202101EAC000032AB0
:100CA000099001D0072A05DB03464146204600F0A3
:100CB00053FB0BE12078800601D5E06900E00620B7
:100CC000B8F1650F814606D0B8F1660F18D0B8F1BB
:100CD000670F70D131E00020B9F1110F009001DBF6
:100CE000112301E009F101030AAA01A90CA8FFF7E9
:100CF000E2FEDDE90C70002609F10105834647E0BC
:100D000001204B4600904FF000470AAA01A90CA809
:100D1000FFF7D1FEDDE90DB00C995D46002610B954
:100D200009F101000D18B9EB050003D4C0F1FF363D
:100D300009F10105A5EB09002BE0B9F1010F01DA7A
:100D40004FF001090020B9F1110F0090484601DD74
:100D5000112300E003460AAA01A90CA8FFF7ABFE85
:100D6000DDE90C704D4600268346207800070AD442
:100D7000AB4500DA5D4601A8012D04DD411911F8EB
:100D8000011C302907D04F4502DA17F1040F04DAAD
:100D9000012082460FE06D1EEEE7002F02DCED1B06
:100DA0003E4403E0781CA84200DD7D1CB81B00F126
:100DB000010A4FF000472078000703D4AA4501DB61
:100DC0004FF0FF3A0021B7F1004F0DF143088DF8C5
:100DD000431024D002202B23002F01DA7F422D2341
:100DE0000A21021EA0F1010000DC5FB197FBF1FCBB
:100DF00097FBF1F201FB1C7C17460CF1300C08F854
:100E000001CDEEE7A8F1010003702188090501D5A5
:100E1000452100E06521A0F1010800F8011C0998B6
:100E20000FA9A1EB0807FF1D00B10120411901EB3B
:100E3000EA70A1693844081A401EA0612078C006F3
:100E400002D42046FFF79AFA099828B1D4E9012183
:100E50009047206A401C20622078C00622D5204698
:100E6000FFF78CFA1EE0002E04DBB34502DD01A87B
:100E7000805D00E03020D4E901219047206A401CC9
:100E80002062761CAAF101005FEA000A0AD100F094
:100E90005FFAC0680168405CD4E901219047206A8C
:100EA000401C2062281EA5F10105DCDC07E0D4E926
:100EB000012118F8010B9047206A401C2062381E5F
:100EC000A7F10107F3DC2046FFF76EFA032011B00B
:100ED00041E600002DE9F04F04460D46D21D22F0F8
:100EE000070089B0D0E900974846394602F06CF90E
:100EF0000246F80F01D02D2307E02068810701D5B5
:100F00002B2302E0202101EAC0038DF820300BB131
:100F1000012000E00020032A824601D0072A04DBDA
:100F20002946204600F018FA3FE12078800601D4D7
:100F30000D2500E0E569C7F30A560D2D49DA0021B9
:100F40004FEA175B08464FF00000002F00F4400006
:100F500007DA00EB80004FF4400100EBD07001EAAB
:100F600060008115012901DD4FF0FF3100224FEAB9
:100F7000850CBCF1180F06D31346ACF118004FF0E6
:100F80008052C24003E04FF4801323FA0CF30CF1BB
:100F90000C0CBCF1200F04D3ACF1200C09FA0CF0BE
:100FA00001E007FA0CF000294FF0004801DD18B904
:100FB0000FE00ED140450CD319EB02095F4121B976
:100FC000404502D19F4329EA0209BBEB175F00D0DD
:100FD000761C2088000502D57B48784402E07A48D8
:100FE0007844193808AA302302F80A30037C0AF141
:100FF0000101002E0AF1020A53546A4602DC4FF046
:10100000300101E04FF031014FF001088DF8001080
:1010100002D0A6F2FF3603E059EA470100D06B4E3A
:10102000002D02DC2178090704D54FF002082E219B
:101030008DF80110C44600210BE0C7F303433F01C4
:10104000C35C491C6D1E02F80830052908F101082F
:1010500001DA002DF1DC00210CE000EB1973491CD2
:101060001B786D1E082902F808304FEA091908F1AB
:10107000010801DA002DF0DC21688B0602D516E0AC
:10108000A8F10108E04505DD02EB080313F8013C77
:10109000302BF5D0B8F1000F09DD02EB080313F88F
:1010A000013C2E2B03D1090701D4A8F10108002D22
:1010B00005DD3E2102F808106D1E08F10108407C94
:1010C000002E02F8080008F1010804DA2D2076420B
:1010D00002F8080002E02B2002F808000A214FF471
:1010E0007A70864208F101080BDB96FBF0F330338F
:1010F00002F8083096FBF0F308F1010800FB1366D4
:1011000001E0642E0CDB642096FBF0F3303302F830
:10111000083096FBF0F308F1010800FB136601E0CC
:101120000A2E06DB96FBF1F0303002F8080008F1D9
:10113000010896FBF1F001FB1060303002F8080066
:10114000A16908F1010808EB050202EB0A00081A80
:10115000A0612078C00602D42046FFF70FF9216A6B
:1011600008AE01EB0A00206204E0D4E9012116F880
:10117000010B9047BAF1010AF7D22078C00602D5D8
:101180002046FFF7FBF86E4609E016F8010B3E28F3
:101190000FD0D4E901219047206A401C2062B8F1A9
:1011A0000108F2D22046FFF7FFF809B00320BDE89E
:1011B000F08F206A2844206203E0D4E90121302026
:1011C00090476D1EEBD3F8E75233000002FCFFFF9F
:1011D00010B5436913B1AFF3008001E0FFF707F9E1
:1011E000012010BD127800F124010A7000224A701B
:1011F0000122EDE711684FF0FF32E9E710B54369CE
:1012000013B1AFF3008001E0FFF790F9012010BDAA
:10121000128800F1240182840022C2840122EDE7B9
:1012200011684FF0FF32E9E72DE9F05F824615467D
:101230008B4600270AF10104B9460078302801D016
:101240009DB113E014F8010B0127782803D058282A
:1012500001D045B10AE00DB1102D07D1002714F8D7
:10126000010B102502E0082500E00A250026B04603
:101270000EE005FB080005FB06F101271FFA80F8C8
:1012800001EB1046B6F5803F00D3B94614F8010BC8
:10129000294600F0A1F80028EBDABBF1000F05D0D9
:1012A0000FB1641E00E05446CBF80040B9F1000FC6
:1012B00006D0FFF75FF802210160C81EBDE8F09F6D
:1012C00048EA0640FAE770B516460C460546FFF7B1
:1012D0004BFB036893F80101012806D0FF2C0FD8BF
:1012E000185D68B101202C7070BDD3F8070132463B
:1012F000214603F2071303442846BDE8704018470F
:101300004FF0FF3070BD7546FFF72AFBAE46050073
:101310006946534620F00700854618B020B5FEF711
:10132000EDFFBDE820404FF000064FF000074FF002
:1013300000084FF0000B21F00701AC46ACE8C009F3
:10134000ACE8C009ACE8C009ACE8C0098D467047FC
:1013500000487047F00000202DE9F0411F46044688
:1013600003260168072A01F4006004DB08B116A512
:1013700005E016A503E008B115A500E015A521F0CC
:1013800010002060A069C01EA0610FB1401EA061C6
:101390002046FEF7F3FF4FB1D4E9012138469047CC
:1013A000206A401C2062C01C206206E0206AFAE726
:1013B000D4E9012115F8010B9047761EF8D220469A
:1013C000FEF7F2FFBDE8F0814E414E006E616E0007
:1013D000494E4600696E66003A2800D2303820F047
:1013E0002002412A01D3A2F13700884201D34FF0F5
:1013F000FF3070472DE9F047814616468AB03548E0
:1014000078440DC88DE80D0032487844801C03AC48
:101410000DC884E80D0041F69B300844372190FB4D
:10142000F1F290FBF1F5A5F1800501FB12041B3CE4
:1014300002D56442012000E00020DFF898A0804639
:101440000027FA44AAF1BE0A0EE0E0070AD03246AD
:10145000684607EB470101230AEB810100F01EFB00
:101460008DE8070064107F1C002CEED1194F7F44DB
:10147000AE3F19E0E80715D007EB04100DF1180A8C
:1014800090E80E008AE80E00C068F04201D1981979
:1014900008903246012306A903A800F0FFFA03AB27
:1014A00083E807006D10641C002DE3D14FF00103A9
:1014B00032466946B8F1000F03A802D000F0D9FA0D
:1014C00001E000F0EBFAC9E90001C9F808200AB010
:1014D000BDE8F087BC2F000010B50446AFF30080D4
:1014E0002046BDE81040FEF7F4BE00004FF0013C7E
:1014F00050F8042B51F8043B9A4221D1A2EB0C0383
:10150000934313EACC1317D150F8042B51F8043B42
:101510009A4215D1A2EB0C03934313EACC130BD1DF
:1015200050F8042B51F8043B9A4209D1A2EB0C036A
:10153000934313EACC13DBD04FF00000704700BF99
:10154000D01A01BAB1FA81F101F0180122FA01F0C2
:10155000CB40C1F12001DBB2C0B2C01A2CFA01F3BA
:10156000D11A914311EAC311E6D1704701491820FD
:10157000ABBEFEE72600020070475FEA400C08BFE2
:1015800091F0000F4FEA8C234FEAC12243EA5151F8
:101590004FEA1C5018BF00F5F0404FEA300018BF6A
:1015A00041F000415FEA6C5C00F02980BCF1FF3F34
:1015B00008BF40F080407047130C06BF12044FF084
:1015C000100C4FF0000C130E04BF12020CF1080CAB
:1015D000130F04BF12010CF1040C930F04BF92000F
:1015E0000CF1020CD30F04BF52000CF1010C114698
:1015F0004FF00002A0F11F00A0EB0C00704711F0AB
:10160000004F08BF704731F000413FF4D5AF0B0CDD
:1016100006BF09044FF0100C4FF0000C0B0E04BF76
:1016200009020CF1080C0B0F04BF09010CF1040CAA
:101630008B0F04BF89000CF1020CCB0F04BF4900D3
:101640000CF1010CCCF12003A0EB0C0022FA03F307
:1016500002FA0CF241EA030100F10100704720F0A8
:101660007F4C80EA030023F07F47ACEB070303F5D0
:101670007C5300F0004003F1FF032DE980494FEA5D
:10168000154B09B44FEA144325EA0B4E24EA0348EC
:101690000FF2042606EB132749083E785FEA320270
:1016A00003FB0667C7F5000707FB06F64FEA54374A
:1016B0004FEAD64606F1020607FB066CCCF1005C49
:1016C0004FEA1C472CEA074C07FB06F40CFB06F517
:1016D00004EB15464FEA961634BF00204FF0004049
:1016E0004FEAD13706FB07FC4FEA1C4C0CFB0BF70B
:1016F000D21B03FB0CF761EB07010CFB0EF7B0EB01
:10170000074072EB17420CFB08F734BFA2EB07420D
:10171000B2EB074261EB17414FEA0C444FEA9107E5
:1017200006FB07FC4FEA1C4C0CFB0BF7B0EBC74069
:1017300072EB573203FB0CF734BFA2EBC742B2EB9C
:10174000C74261EB57310CFB0EF7B0EBC70072EBF1
:1017500057720CFB08F734BFA2EBC702B2EBC7020B
:1017600061EB5771039F4FEA816141EA921104EBEB
:10177000CC044FEAD1374FEA826206FB07FC42EA0B
:1017800090124FEA80604FEA1C4C0CFB0BF7D21B07
:1017900003FB0CF761EB07010CFB0EF7B0EB074006
:1017A00072EB17420CFB08F734BFA2EB0742B2EB17
:1017B000074261EB17414FEA8C554FEA910704EB62
:1017C0009C2406FB07FC4FEA1C4C0CFB0BF7B0EB10
:1017D000C74072EB573203FB0CF734BFA2EBC74292
:1017E000B2EBC74261EB57310CFB0EF7B0EBC70011
:1017F00072EB57720CFB08F734BFA2EBC702B2EBD7
:10180000C70261EB577115EB4C254FEA816141EA44
:1018100092114FEA82624FEAD13742EA901206FBF8
:1018200007FC44F100044FEA80604FEA1C4C0CFBBB
:101830000BF7D21B03FB0CF761EB07010CFB0EF758
:10184000B0EB074072EB17420CFB08F734BFA2EB7A
:101850000742B2EB074261EB174115EB1C154FEA4B
:10186000813141EA92414FEA823242EA90424FEAA4
:1018700080304FEA0C7644F1000448EA03434EEA14
:101880000B484FF0000EB2EB080C71EB030724BFBE
:10189000624639464EEB0E0E4FF0000B00185241D7
:1018A00049414BEB0B0BB2EB080C71EB03077BF1DF
:1018B000000B24BF624639464EEB0E0E4FF0000B74
:1018C0000018524149414BEB0B0BB2EB080C71EB8A
:1018D00003077BF1000B24BF624639464EEB0E0E28
:1018E00051EA020718BF46F0010616EB0E7655F1D5
:1018F000000254F1000103D5BDE88901BDE800886C
:10190000BDE88901BDE80048B619524141EB01012B
:10191000A3F10103704780807F7E7D7C7B7A79789C
:10192000777676757473727171706F6E6E6D6C6CA4
:101930006B6A6A6968686766666564646363626146
:101940006160605F5F5E5E5D5D5C5C5B5B5A5A59C7
:101950005958585757565655555554545353525233
:101960005251515050504F4F4F4E4E4D4D4D4C4C8B
:101970004C4B4B4B4A4A4A494949484848474747D4
:101980004746464645454544444444434343434211
:10199000424242414141002B9C4630D477002BD03B
:1019A0001CB54FEA370703B44FF010004FF0100199
:1019B000BAF1000F06D0BCF1000FDCBF40F0080008
:1019C00040F008014FF000000FBCBDE810400BF1E3
:1019D000010BBBF1010F08BF5FEA170722BF12F12D
:1019E000010211F101014FF0004143F1000300F049
:1019F000004043EA00007047F9D35708D0E746EAB1
:101A0000064613F1400F4FEA16461FDD13F1200F73
:101A1000DFBF16430A46002120335B42BED0C3F12C
:101A2000200746EA064602FA07F74FEA164646EA54
:101A30000706C3F1200722FA03F201FA07F721FA99
:101A400003F14FF0000342EA0702A7E746EA020665
:101A500046EA06464FEA164646EA0106BCBF46EA93
:101A60000646360C4FF000034FF000024FF0000125
:101A700094E72DE9804C9A46934670B491E838007B
:101A800007C831EA400C48BF34EA430C03D5FFF7DE
:101A9000E6FDFFF780FFF0BCBDE8008C2DE9804C2F
:101AA0009A46934670B491E8380007C810F0804F0A
:101AB00008BF13F0804F03D100F005F8FFF76BFF6C
:101AC000F0BCBDE8008C20F07F4780EA030023F0E3
:101AD0007F4C07EB0C03A3F57C5300F00040A3F10F
:101AE000FE0392F0000F00F0B38095F0000F00F0BD
:101AF00077802DE901494FEA11404FEA144621EA67
:101B0000004800FB06FC24EA064708FB06F607FB34
:101B100008F800FB07F718EB06484CEB164C4FEAA9
:101B2000124B18EB07484FEA15464CEB174022EAD8
:101B30000B4E0BFB06FC25EA06470EFB06F607FBE1
:101B40000EFE0BFB07F71EEB064E4CEB164C4FF050
:101B500000061EEB074E4CEB174B18EB0B0840F141
:101B6000000018EB0E0B58EB000840F100008F1A34
:101B70004FF000013CBFC943661B14BFB5EB040C1A
:101B800000213CBFC943F61B4FEA17444EEA8E0EB4
:101B900027EA04454FEA1C4704FB07622CEA074C7E
:101BA00005FB07F70CFB05F604FB0CFC16EB0746E0
:101BB00042EB174216EB0C4642EB1C421BEB0606AF
:101BC00058EB0202414146EA9E0601D5BDE8018973
:101BD000B619524141EB0101A3F10103BDE80189AE
:101BE0004FEA14454FEA114724EA054621EA074C1B
:101BF00005FB07F406FB07F70CFB06F105FB0CFCE5
:101C000011EB074144EB17444FEA124711EB0C412B
:101C100044EB1C4422EA074C05FB07F206FB07F7DE
:101C20000CFB06F605FB0CFC16EB074642EB1742D5
:101C300016EB0C4642EB1C456A1854F1000148BFF4
:101C40007047B619524141EB0101A3F101037047FE
:101C500095F0000F37D04FEA11424FEA144721EABE
:101C6000024624EA074C02FB07F106FB07F70CFBD0
:101C700006F402FB0CFC14EB074441EB17414FEA5E
:101C8000154714EB0C4441EB1C4125EA074C02FBC1
:101C900007F506FB07F70CFB06F602FB0CFC16EB40
:101CA000074645EB174516EB0C4645EB1C4212194F
:101CB00051F1000148BF7047B619524141EB010193
:101CC000A3F1010370474FEA14454FEA114724EA94
:101CD000054621EA074C05FB07F106FB07F70CFB5D
:101CE00006F24FF0000605FB0CFC12EB074241EB3D
:101CF000174112EB0C4251EB1C4148BF7047921840
:101D000041EB0101A3F101037047000010B5AE489B
:101D1000406940F40030AC4948610846406940F4ED
:101D2000003048610846406940F400304861084688
:101D3000406940F4003048610846406940F4802022
:101D400048610846406940F480204861084680693F
:101D500040F4006088614FF09040006820F440300B
:101D600040F400304FF0904108600846006820F0D1
:101D70000300401C08600846006820F00C00001DAD
:101D800008600846006820F4402040F40020086005
:101D90008E48006820F00300401C8C49086008460B
:101DA000006820F00C00001D08604FF09040406A71
:101DB00020F00F00801D4FF0904148620846406AB5
:101DC00020F0F00040F060014FF090404162406828
:101DD00020F001004FF0904148600846406820F034
:101DE000020048607948001D006820F00100774932
:101DF000091D08600846006820F0020008604FF0E6
:101E00009040C06820F440304FF09041C8600846D0
:101E1000C06820F00300C8600846C06820F00C00CD
:101E2000C8600846C06820F44020C86067480C308D
:101E3000006820F0030065490C310860084600681E
:101E400020F00C0008606248006820F01000604933
:101E5000086040F283305E492831086041F63E70E8
:101E6000091D08605A48183000685A49084040F077
:101E70006000574918310860084600685649084014
:101E800040F4C0405249183108600846006840F0EC
:101E9000080008600846006840F4006008604C488C
:101EA0004430006840F400404949443108604848E3
:101EB0002030006840F001004549203108600846A4
:101EC000006840F0100008600846006820F002003A
:101ED00008600846006820F02000086040F69F7007
:101EE0003B4934310860091D08603948006840F0FA
:101EF0000100374908603448C06940F002003249A7
:101F0000C86140F21F303549086048F69F40091DFE
:101F1000086032481038006820F003002F4910395B
:101F20000860084600682B49084040F010002B4923
:101F3000103908604FF4FA7028490C3108602748BE
:101F40001C30006840F4004024491C3108602348DC
:101F50000838006820F00200204908390860084667
:101F6000006840F0010008601C481C38006840F020
:101F700002001A491C39086018482838006840F0E7
:101F800001001649283908601D200221002804DBC1
:101F90000A07130E124A135406E00A07140E114AD8
:101FA00000F00F031B1FD45400BF1D20002809DBC5
:101FB00000F01F02012191404209920002F1E0224B
:101FC000C2F8001100BF10BD00100240000400481C
:101FD000002C01408FFFFEFFFF8FFFFE2804004012
:101FE00000E400E018ED00E000214FF0E0229161F4
:101FF0000349086000BF024909680029FBD1704706
:102000000000002000B50346642103FB01F0FFF748
:10201000EBFF00BD10B56048406940F400305E49F8
:1020200048614FF09040006820F4405040F4005068
:102030004FF0904108600846006A20F0706040F060
:10204000807008625448406940F400305249486149
:102050004FF09040006820F4404040F400404FF0C2
:10206000904108600846006A20F0704040F08050BF
:1020700008624948806940F400304749886163201C
:1020800046490860C720091D0860444810380068A8
:1020900020F00300401C41491039086008460068E0
:1020A00020F0F00008603D480838006820F00A0081
:1020B0003A490839086039481038006820F00C00A7
:1020C00036491039086035480838006840F001008A
:1020D00032490839086031481C38006840F0430034
:1020E0002E491C3908602D482838006840F001004E
:1020F0002A49283908602848806940F48020264908
:102100008861632026490860C720091D08602448AB
:102110001038006820F00300401C21491039086085
:102120000846006820F0F00008601D480838006884
:1021300020F00A001A490839086019481038006868
:1021400020F00C001649103908601548083800685E
:1021500040F0010012490839086011481C38006835
:1021600040F043000E491C3908600D4828380068CB
:1021700040F001000A49283908600221192001F0C5
:1021800049F8192001F038F802211A2001F042F82C
:102190001A2001F031F810BD00100240284401401F
:1021A0002848014010B5012000F004F81120FFF785
:1021B00029FF10BD1549096821F48051134A1160A7
:1021C0001146096821F4005111601146096841F473
:1021D0008051116002090D49096862F307110B4A29
:1021E00011601146096821F4805111601146096897
:1021F00041F4805111601146096860F307111160C4
:102200001146096821F48051116070471404004898
:1022100010B57148406940F480206F4948616F48AB
:10222000006820F0406040F080606C49086008461B
:10223000006820F0407040F0807008600846006838
:1022400020F4407040F4807008600846006820F474
:10225000406040F4806008600846006820F4405008
:1022600040F4805008600846006820F4404040F484
:1022700080400860081D006820F40050091D0860B7
:102280000846006820F4805008600846006820F086
:10229000100008600846006820F02000086008462A
:1022A000006820F0400008600846006820F08000C8
:1022B00008604A480C30006820F0406047490C3103
:1022C00008600846006820F0407008600846006812
:1022D00020F4407008600846006820F44060086000
:1022E0000846006820F4405008600846006820F462
:1022F0004040086039481430006840F48050374945
:10230000143108600846006820F0F00040F030000A
:1023100008600846006820F4805008600520FFF738
:1023200071FE2E481430006840F480502B4914315F
:1023300008600846006820F0F00040F030000860B7
:102340000846006820F4805008600120FFF75AFE1C
:1023500022481430006840F480502049143108604D
:102360000846006820F0F00040F0300008600846A1
:10237000006820F4805008600846006840F48050EF
:1023800008600846006820F0F00040F02000086077
:102390000846006820F4805008600220FFF732FEF3
:1023A0002820FFF707FF0420FFF71EFE0820FFF795
:1023B00001FF0420FFF718FEFFF7F4FE0620FFF7E9
:1023C000F9FE0420FFF710FE0C20FFF7F3FE0420B7
:1023D000FFF70AFE10BD0000001002400004004894
:1023E0002A48406940F48020284948610846C0696D
:1023F00040F00100C8612648006820F4400040F425
:102400000000234908600846406A20F4704040F408
:1024100080511F4841621E480C30006820F4400083
:102420001B490C3108604FF08040006820F010001C
:102430004FF0804108605920886243F67F60C8628F
:102440000846C0691349084040F4C0404FF080413D
:10245000C8610846C06940F40060C8610846406C25
:1024600040F4004048640846006A40F48050086226
:102470000846006A20F40050086240F2AF40086449
:102480000846006840F001000860704700100240F4
:1024900000040048FF8FFFFE10B56D48406940F40E
:1024A00000206B4948610846406940F400304861AB
:1024B0006848006820F4405040F480506549086046
:1024C0000846006820F4404040F480400860084618
:1024D000006820F4403040F480300860084600680E
:1024E00020F4402040F4802008604FF090400068C5
:1024F00020F4401040F480104FF09041086055489F
:10250000001D006820F040005249091D086008467F
:10251000006820F0800008600846006820F48070A1
:1025200008600846006820F4007008604FF0904092
:10253000406820F480604FF09041486045480C307E
:10254000006820F4405043490C3108600846006898
:1025500020F4404008600846006820F440300860DD
:102560000846006820F4402008604FF09040C068A2
:1025700020F440104FF09041C86001F075FC3448E1
:10258000C06940F004003249C861592032490860EE
:1025900042F20F70091D08602F481038006820F0C3
:1025A00003002D4910390860084600682B4908408F
:1025B00040F010002849103908604FF4FA7026499D
:1025C0000C31086024481C30006840F40040224967
:1025D0001C31086020480838006820F002001E49BD
:1025E000083908600846006840F0010008601A4891
:1025F0001C38006840F0020017491C390860164872
:102600002838006840F001001349283908601E206E
:102610000221002804DB0A07130E114A135406E0B6
:102620000A07140E0F4A00F00F031B1FD45400BFFB
:102630001E20002809DB00F01F0201219140420901
:10264000920002F1E022C2F8001100BF10BD0000AC
:102650000010024000080048280800408FFFFEFFDD
:1026600000E400E018ED00E004480068002804DD04
:1026700002480068401E01490860704700000020C1
:1026800030B5024600204FF0E0210861501E48613D
:1026900048170121002804DB0B071C0E0F4B1C54AC
:1026A00006E00B071D0E0E4B00F00F04241F1D55F6
:1026B00000BF00204FF0E02188610846006940F02B
:1026C000040008610846006940F0020008610846FD
:1026D000006940F00100086130BD000000E400E046
:1026E00018ED00E01948006840F4700017490860D0
:1026F0001748006840F00100154908600846406826
:1027000014490840124948600846006812490840C8
:102710000F4908600846006820F4802008600846D9
:10272000406820F4FE0048600846C06A20F00F00B0
:10273000C8620846006B0949084005490863002043
:102740008860C803014980390860704788ED00E05F
:10275000001002400CC07FF8FFFFF6FECCFC00FF2B
:102760003C48006820F007003A49086008460068C5
:1027700040F0040008603848006840F48030364972
:10278000086000BF3448006800F400300028F9D029
:1027900031484068314908402F4948600846406840
:1027A00020F4FE0048600846C06A20F00F00C862AE
:1027B0000846006820F08070086000BF2648006866
:1027C00000F00070B0F1007FF8D02348406820F49A
:1027D000701040F4E010204948600846406820F43A
:1027E000003048600846406820F4C03040F4803033
:1027F00048600846006840F08070086000BF1648D6
:10280000006800F000700028F9D01348406820F0FC
:102810000300801C1049486000BF0F48406800F06A
:102820000C000828F9D10C48006840F400200A493F
:1028300008600846406820F0F0004860084640689C
:1028400020F4E06048600846406820F4605048602A
:102850007047000000200240001002400CC07FF8CA
:1028600010B52848006900F0010070B126480068E2
:10287000012804D125480068401C244908602148EB
:10288000006920F001001F4908611E48006900F03E
:102890000200B0B31B48406B1D4908601A4800682D
:1028A000C0F10100184908600846006800BB1848DC
:1028B00000681849096888420DD91548006815490B
:1028C0000968401A1149096848F6A04202FB010054
:1028D000114908600CE00D48006848F6A0414843E3
:1028E0000C4909680A4A1268891A401A0A4908609C
:1028F000002006490860064800680649086000F0A4
:10290000A5FC10BD00400140480000204C00002004
:1029100040000020440000203C00002013490968CA
:1029200001F0010151B112490968491C104A1160B6
:102930000E49096821F001010C4A11600B49096830
:1029400001F0020189B1094924310868094909687F
:10295000411A074A1268C82303FB0211064A116094
:102960000021034A11600349086070471048014084
:102970006C000020600000205C00002016490968FF
:1029800001F0010179B115490968491C134A116028
:1029900013490968491C124A11600F49096821F05E
:1029A00001010D4A11600C49096801F0020189B169
:1029B0000949243108680B490968411A074A126815
:1029C000C82303FB0211084A11600021034A116069
:1029D0000449086070470000104401406400002072
:1029E00068000020580000205400002010B5154851
:1029F000006800F0020020B31349886813490A6890
:102A00001349096801F0F6F9114908600E4908698F
:102A100010490A681049096801F0ECF90E4908608C
:102A2000094991F90C2091F905000B490B680849F7
:102A3000096801F017F90348006820F00200014915
:102A4000086010BD100400408800002054000020E1
:102A5000340000205C0000203800002038B55F48BA
:102A6000006800F00200002871D05D480068B428BA
:102A700002D9B4205A490860594800680090594862
:102A800003685948B4210268002001F0BFF80446E9
:102A900054480068844201D952480468524800688A
:102AA000844201D25048046850480068401CA0424B
:102AB00007D1012001F05AF94C480068401C4B49ED
:102AC00008604A480068401EA04208D14FF0FF301D
:102AD00001F04CF945480068401E444908604348ED
:102AE0000068A04234D23E48007902281FD13F48F6
:102AF0000068801C3B490968884208D8022001F020
:102B000035F93A480068801C384908605EE037486B
:102B10000068401C33490968884257D1012001F000
:102B200025F932480068401C304908604EE02F48C3
:102B30000068401C2B490968884247D8012001F0F1
:102B400015F92A480068401C284908603EE044E026
:102B500026480068A04236D921480079022821D1B0
:102B600022480068801E20490968884209D36FF016
:102B7000010001F0FBF81D480068801E1B49086039
:102B800024E01A480068401E1749096888421DD190
:102B90004FF0FF3001F0EAF814480068401E134976
:102BA000086013E011480068401E0F490968884218
:102BB0000CD34FF0FF3001F0D9F80C480068401EEC
:102BC0000A49086002E0002001F0D0F803480068DC
:102BD00020F002000149086000BF38BD1008004025
:102BE00088000020280000202C0000202400002065
:102BF0003248006800F0010050B131480068401CC4
:102C00002F4908602D48006820F001002B4908601A
:102C10002C48007830B92C4800682C490860012005
:102C2000284908702648006828490968884202D166
:102C30000120274908702248016824480068323082
:102C4000814206D10020224908701D4908601D49B3
:102C500008701A48006800F0020068B31C48007849
:102C600001281BD11B480078012808D14FF0904063
:102C7000406940F020004FF09041486107E04FF07C
:102C80009040406920F020004FF090414861114889
:102C90000078C0F101000F49087007E04FF0904044
:102CA000406920F020004FF09041486103480068DF
:102CB00020F0020001490860704700001034014014
:102CC0007C00002080000020740000208400002090
:102CD000790000207800002005480068401E054962
:102CE000085C0A2801D1012070474FF0FF30FBE754
:102CF000700000209C0000200D480068A0B10D4825
:102D00000278002105E00B4B481C185C5854481C05
:102D1000C1B2074800688142F5D305480068401EEB
:102D2000034B186050B270474FF0FF30FBE70000D4
:102D3000700000209C00002010B58C48806940F491
:102D400080408A4988610846006B20F003000863D0
:102D50000846406940F4002048610846406940F454
:102D6000002048610846406940F400304861084648
:102D7000406940F4003048617D48006820F44070AC
:102D800040F400707A4908600846006820F440600A
:102D900040F4006008604FF09040006820F440006C
:102DA00040F400004FF0904108600846006820F0B1
:102DB000407040F0007008606D482030006820F4DA
:102DC000702040F4E0206A4920310860084600681D
:102DD00020F4700040F4E00008604FF09040406A3A
:102DE00020F4704040F4E0414FF090404162406A6E
:102DF00020F4702040F4E0214FF0904041625C48A4
:102E00000830006840F440705949083108600846AD
:102E1000006840F4406008604FF09040806840F4E3
:102E200040004FF0904188600846806840F0407054
:102E300088604F480C30006820F4407040F4807087
:102E40004B490C3108600846006820F4406040F4AB
:102E5000806008604FF09040C06820F4400040F46B
:102E600080004FF09041C8600846C06820F0407074
:102E700040F08070C8603E48001D006820F01000DF
:102E80003B49091D08600846006820F020000860E2
:102E90004FF09040406820F400604FF0904148604F
:102EA0000846406820F4805048603248006820F0AE
:102EB0000100304908600846006820F010200860D2
:102EC0000846006820F400400860081D006820F4EF
:102ED0004050091D086041F64C5026490C310860ED
:102EE0002448006840F00C00224908600846006849
:102EF00040F00100086000BF1E481C30006800F46C
:102F000000100028F8D000BF1A481C30006800F4F8
:102F100080000028F8D01748006840F020001549CC
:102F200008600846006820F0800008602520022123
:102F3000002804DB0A07130E0F4A135406E00A07A1
:102F4000140E0E4A00F00F031B1FD45400BF25209F
:102F5000002809DB00F01F02012191404209920084
:102F600002F1E022C2F8001100BF10BD00100240C3
:102F7000000800480038014000E400E018ED00E0DF
:102F80000348006808B1012070474FF0FF30FBE7AD
:102F90007000002010B5044603E0FFF7ADFE20707E
:102FA000641CFFF7EDFF0128F7D00020207010BD52
:102FB0000FB400B58FB011A80E90322101A80E9B5E
:102FC000109AFDF7ADF900200E9001A800F012F85C
:102FD0000FB05DF814FB000000BF0549096801F05F
:102FE00080010029F9D002490C31088070470000A7
:102FF0001C38014000B5024603E012F8010BFFF750
:10300000EBFF10780028F8D1521E10780A2802D160
:103010000D20FFF7E1FF00BD10B53348406940F4D3
:103020008020314948613148006820F0405040F02C
:1030300000502E4908600846406A20F0706040F059
:1030400080712A4841622848806940F480302649CE
:10305000886163202649886248F69F40C862084616
:10306000806920F00300401C88610846806920F0D8
:10307000F00088610846006A40F00A0008620846CD
:10308000806920F00C0088610846006A40F0010069
:1030900008620846C06840F04300C86008460068FF
:1030A00040F00100086018200221002804DB0A0714
:1030B000130E104A135406E00A07140E0E4A00F0CD
:1030C0000F031B1FD45400BF1820002809DB00F099
:1030D0001F02012191404209920002F1E022C2F850
:1030E000001100BF10BD00000010024000040048A5
:1030F0000040014000E400E018ED00E000B5FFF7FB
:103100008BFF00F001F800BD1B48006820F0404034
:1031100040F00040184908600846406A20F07040BE
:1031200040F080511448416213480C30006820F090
:10313000404011490C31086010488069104908402E
:1031400040F4C0400D4988610846806940F4006041
:1031500088610846406C40F4004048640846006AB4
:1031600040F0100008620846006A20F02000086263
:1031700007208863704700000004004800400140B9
:10318000FF8FFFFE10B50C4A0C490D4800F04FFDB3
:1031900009480068401E094A115C0AA0FFF708FFB1
:1031A00005480068401E0549085C0A2803D10D2126
:1031B00004A0FFF7FDFE10BD700000209C00002061
:1031C000003801402563000003B4019841000098D5
:1031D00050EAC12018BF04204A0D18BF40F001007A
:1031E00040F2FF72B2EB515F08BF40F002000128CD
:1031F00008BF052002B07047002809DB00F01F025D
:10320000012191404209920002F1E022C2F800112E
:103210007047000010B5002804DB0A07130E054AAA
:10322000135406E00A07140E034A00F00F031B1F95
:10323000D45410BD00E400E018ED00E030380A2856
:1032400001D20120704700207047000010B52DED1D
:10325000048B5D48046872B6204600F0B1FE41EC74
:10326000190B9FED5A0B53EC102B00F0F9FE41ECBB
:10327000180B9FED580B53EC102B00F0EFFF04D808
:1032800041F288305549086097E0204600F098FEEA
:1032900041EC190B9FED4D0B53EC102B00F0E0FEB1
:1032A00041EC180B9FED4E0B53EC102B00F0D6FFAA
:1032B00004D84FF47A60494908607EE0204600F067
:1032C0007FFE41EC190B9FED410B53EC102B00F0EE
:1032D000C7FE41EC180B9FED440B53EC102B00F094
:1032E000BDFF04D840F6B8303C49086065E0204690
:1032F00000F066FE41EC190B9FED340B53EC102BE4
:1033000000F0AEFE41EC180B9FED390B53EC102B87
:1033100000F0A4FF04D84FF4FA60304908604CE094
:10332000204600F04DFE41EC190B9FED280B53ECAD
:10333000102B00F095FE41EC180B9FED2F0B53EC7A
:10334000102B00F08BFF04D84FF47A7023490860EB
:1033500033E0204600F034FE41EC190B9FED1B0BCF
:1033600053EC102B00F07CFE41EC180B9FED240B6E
:1033700053EC102B00F072FF04D84FF4FA70174989
:1033800008601AE0204600F01BFE41EC190B9FED8F
:103390000F0B53EC102B00F063FE41EC180B9FED6C
:1033A0001A0B53EC102B00F059FF03D8FA200B49ED
:1033B000086002E0642009490860BFF36F8F62B6BD
:1033C000BDEC048B10BD00003C000020E1534A1905
:1033D000822D983F0000000000005940740000203A
:1033E00000000000000054400000000000004E40BB
:1033F00000000000000044400000000000003440D5
:103400000000000000002440000000000000144004
:1034100010B54648406940F40030444948610846C8
:10342000806940F4005088614FF09040006820F4BB
:10343000406040F480604FF090410860084640686A
:1034400020F0200048600846C06820F44060C86052
:103450003748006820F01000354908605920344989
:103460002831086040F21E30091D086030481830CD
:10347000006820F003002E49183108602D480068CC
:103480002D49084040F010002A49086028481830AB
:10349000006840F00800264918310860244844308C
:1034A000006840F400402249443108602048203040
:1034B000006840F001001E4920310860084600689D
:1034C00020F00200086040F28F1019493431086082
:1034D00017480C30006840F0030015490C310860B3
:1034E0001348006840F00100114908602E200221B5
:1034F000002804DB0A07130E104A135406E00A07DB
:10350000140E0F4A00F00F031B1FD45400BF2E20CF
:10351000002809DB00F01F020121914042099200BE
:1035200002F1E022C2F8001100BF10BD00100240FD
:1035300000340140180800408FFFFEFF00E400E067
:1035400018ED00E01148406940F480200F494861BF
:103550000846406940F4802048610D48006820F02A
:1035600030000B4908600846006820F440100860ED
:1035700007480C30006820F0300005490C31086025
:103580000846006820F440100860704700100240B0
:103590000004004892B0FFF7E3F840F2CF20FFF7B5
:1035A0006FF8FEF735FEFEF7FDFDFEF775FFFEF73F
:1035B00017FFFEF7ABFBFFF7A1FDFEF72BFDFFF7B3
:1035C000BBFBFFF7BFFFFFF723FF642000F0FCFB0E
:1035D0005A20DB4908600220087101204871002050
:1035E00088600120087300200861002600278046BB
:1035F0008146824683460490A0E1D2A0FFF7D8FC22
:10360000D6A0FFF7D5FCDAA0FFF7D2FCDEA0FFF7CB
:10361000CFFC00BFFFF760FB0128FBD105A8FFF737
:10362000B9FC05A8FCF796FE012802D0022874D147
:10363000D8E0D2E0DCA0FFF7BBFCE2A0FFF7B8FCCB
:10364000E3A0FFF7B5FCE7A0FFF7B2FCCEA0FFF7C1
:10365000AFFC00BFFFF740FB0128FBD105A8FFF737
:1036600099FC05A8FCF776FE012804D0022832D088
:1036700003287CD1AAE028E0E1A0FFF799FCE5A0AF
:10368000FFF796FC00BFFFF727FB0128FBD105A839
:10369000FFF780FC05A8FCF75DFE019000F094FBAD
:1036A000E4A0FFF785FC00BFFFF716FB0128FBD164
:1036B00005A8FFF76FFC9DF81400592803D09DF86A
:1036C0001400792801D14FF0010ABAF1010FD3D1CA
:1036D0004FF0000A80E073E0DEA0FFF769FCE4A091
:1036E000FFF766FCE9A0FFF763FCBEA0FFF760FCF4
:1036F000A5A0FFF75DFC00BFFFF7EEFA0128FBD1A4
:1037000005A8FFF747FC05A8FCF724FE012805D013
:10371000022844D003284ED14AE007E139E0E2A074
:10372000FFF746FCE9A0FFF743FC00BFFFF7D4FA20
:103730000128FBD105A8FFF72DFC05A8FCF70AFE20
:103740007F490871E9A0FFF733FC00BFFFF7C4FA17
:103750000128FBD105A8FFF71DFC05A8FCF7FAFD21
:1037600077490860B3A0FFF723FC00BF00E02FE01B
:10377000FFF7B2FA0128F9D105A8FFF70BFC9DF875
:103780001400592803D09DF81400792801D1012094
:10379000049004980128C2D1002004900FE0DBA01F
:1037A000FFF706FC00F082FBE2A0FFF701FC06E059
:1037B0004FF0010B03E0E5A0FFF7FAFB00BF00BFED
:1037C000BBF1010F88D14FF0000B05E0012603E0AB
:1037D000DEA0FFF7EDFB00BF00BF012E7FF42AAF94
:1037E0000026A7E09DE0E2A0FFF7E2FB27E0E6A0CD
:1037F000FFF7DEFB00BFFFF76FFA0128FBD105A83A
:10380000FFF7C8FB9DF81400462803D09DF814006C
:10381000662803D101200390804610E09DF8140033
:10382000422803D09DF81400622805D14FF0FF30E4
:1038300003904FF0010802E0C4A0FFF7B9FBB8F114
:10384000010FD4D14FF0000827E0D7A0FFF7B0FB5D
:1038500000BFFFF741FA0128FBD105A8FFF79AFB4B
:103860009DF81400462803D09DF81400662803D163
:1038700001200290814610E09DF81400422803D0F8
:103880009DF81400622805D14FF0FF3002904FF0F0
:10389000010902E0ADA0FFF78BFBB9F1010FD4D114
:1038A0004FF00009C9A0FFF783FB00BFFFF714FA30
:1038B0000128FBD105A8FFF76DFB05A8FCF74AFD21
:1038C0000546CAA0FFF774FB00BFFFF705FA012801
:1038D000FBD105A8FFF75EFB05A8FCF73BFD0446FE
:1038E00072B61749039848710846856002980873B4
:1038F00008460461BFF36F8F62B64EA0FFF758FB16
:1039000000BFFFF7E9F90128FBD105A8FFF742FB4B
:103910009DF81400592803D09DF81400792800D18F
:103920000127012F7FF45FAF002703E087A0FFF797
:103930003FFB00BF00BF22A0FFF73AFB5DE600009F
:10394000880000202A2A2A2A2A4D61696E204D65A6
:103950006E752A2A2A2A2A0A0000000031202D200A
:1039600043616D657261206D6F64756C650A00005E
:1039700032202D204443206D6F746F72206D6F6470
:10398000756C650A0000000043686F6F7365206FF7
:103990006E65206F662061626F7665206F70746956
:1039A0006F6E733A200000000A2A2A2A2A2A4361ED
:1039B0006D657261206D6F64756C652A2A2A2A2AEA
:1039C0000A00000031202D20536572766F0A000036
:1039D00032202D2053746570706572204D6F746FA6
:1039E000720A000033202D204261636B20746F2027
:1039F00070726576696F7573206D656E750A00006B
:103A00000A2A2A2A2A2A536572766F2A2A2A2A2AF9
:103A10000A000000456E74657220536572766F204F
:103A2000616E676C653A28373520746F2031383005
:103A3000290A00004261636B20746F207072657602
:103A4000696F7573206D656E753F5B592F4E5D0A0A
:103A5000000000000A2A2A2A2A2A53746570706519
:103A600072204D6F746F722A2A2A2A2A0A000000D7
:103A700031202D20436F6E74726F6C2073746570EB
:103A8000706572206D6F746F720A000032202D20F5
:103A9000526563656E7465722073746570706572CB
:103AA000206D6F746F720A000A2A2A2A2A2A436F2D
:103AB0006E74726F6C2073746570706572206D6FB8
:103AC000746F722A2A2A2A0A00000000456E746563
:103AD0007220737465707065722073706565643AE6
:103AE0002831206F72203229200A0000456E74654B
:103AF00072207374657070657220616E676C653AD0
:103B0000283020746F20313830290A0053746172D4
:103B1000742073746570706572206D6F746F72209D
:103B2000726563656E7465722073657175656E6329
:103B3000652E0A00526563656E746572696E672052
:103B400066696E6973682E0A00000000496E76612E
:103B50006C696420636F6D6D616E642C20706C65A0
:103B60006173652074727920616761696E2E0A0045
:103B70000A2A2A2A2A2A4443204D6F746F722A2A5D
:103B80002A2A2A0A000000004C656674206D6F74B2
:103B90006F7220646972656374696F6E3A2846209B
:103BA0006F72204229200A005269676874206D6F85
:103BB000746F7220646972656374696F6E3A284627
:103BC000206F72204229200A000000004C656674B4
:103BD000206D6F746F722073706565643A283020B1
:103BE000746F2031303029200A0000005269676864
:103BF00074206D6F746F722073706565643A28303D
:103C000020746F2031303029200A000070B504463E
:103C1000049DA54200D225468D4200D90D46281BA1
:103C20009E1A70430E1BB0FBF6F0104470BD10B529
:103C3000C36903F02003A3B1838C0D2B06D10A23A3
:103C400014680B5513685B1C136005E0838C1468C3
:103C50000B5513685B1C13601368322B01D30023D0
:103C6000136010BD30B54FF09044646924F0010436
:103C70004FF090456C612C46646924F002046C613D
:103C8000384C246824F00104364D2C602C462468FE
:103C900024F002042C6041F63F744C436425B4FBCD
:103CA000F5F4314D2C6041F63F745C436425B4FB60
:103CB000F5F42D4D2D1D2C6000280DDD4FF09044A6
:103CC000646944F001044FF090456C612C466469CE
:103CD00024F002046C611CE000280DDA4FF09044DF
:103CE000646924F001044FF090456C612C466469CE
:103CF00044F002046C610CE04FF09044646924F0DD
:103D000001044FF090456C612C46646924F0020474
:103D10006C61002A0BDD134C246844F00104114D42
:103D20002C602C46246824F002042C6018E0002A41
:103D30000BDA0C4C246824F001040A4D2C602C464C
:103D4000246844F002042C600AE0064C246824F045
:103D50000104044D2C602C46246824F002042C60DD
:103D600030BD000014040048342C01401349096898
:103D7000072902D90021114A1160811C29B1411C77
:103D800019B1012801D0022810D10C490978014449
:103D900001F00701094A11600949126811F822204F
:103DA0000849096862F38911064A116028B9054972
:103DB000096821F47071034A1160704730000020D7
:103DC0000400002014080048B42800D9B4204B286F
:103DD00000D24B201E2202EB500243F67F6302FB0F
:103DE00003F14FF47A72B1FBF2F24FF080431A64A0
:103DF000704700002DE9F84306460D46914666B32C
:103E0000184890FBF9F740F20640874200DC07466D
:103E100040F25460874200DB07466423002240F2F0
:103E2000546140F206400097FFF7F0FE8046A6EB93
:103E30000804642C00DD642414F1640F01DA6FF0CF
:103E400063042819642801D8254405E0281964284A
:103E500001D9642500E0002500E000252846BDE8E2
:103E6000F883000080FC0A0010B50F48006840F09D
:103E700040000D4908600846006840F08000086076
:103E80004FF09040406920F480604FF090414861CD
:103E90006420FEF7B7F84FF09040406940F480602E
:103EA0004FF09041486110BD1408004810B52248F9
:103EB000006820F002002049086006E04FF0FF3063
:103EC000FFF754FF1420FEF79DF81C48006800F02F
:103ED00004000028F2D00020FFF748FF0A20FEF778
:103EE00091F817480068174908600AE00120FFF7B9
:103EF0003DFF14480068401C124908601420FEF77A
:103F000081F80E48006800F480600028EED00020A0
:103F1000FFF72CFF0A20FEF775F80A4800680A49E7
:103F200008605A20094908600348006840F0020010
:103F30000149086010BD00000C0800401004004852
:103F40002C000020240000202800002088000020F1
:103F500010B500290AD00878002807D00548784411
:103F6000FDF7C4FA002801D0002010BD02487844B3
:103F700010BD00009A0400009204000010B5002952
:103F80000AD00878002807D005487844FDF7AEFA33
:103F9000002801D0002010BD0248784410BD000068
:103FA0007E05000076050000491058BFC1F1404170
:103FB0005B1058BFC3F140438B42EFF30080704762
:103FC000B0FA80F310FA03F10AD0C3F11D0303F530
:103FD00080634FEA41504FEA035202EBD121704710
:103FE0004FF000007047000051EA030C17D41CF595
:103FF000801F58BFBCF5801F00F10680994218BF92
:10400000704708BF9042704707D711F5801F58BF0F
:1040100013F5801F19D499427047894270471CF5E7
:10402000801F08D5BCF5801FF7D58B4218BF70479D
:1040300008BF824270474FF4001C1CEB410F38BF91
:104040001CEB430F01D28B42704770B500F0B2F801
:10405000922449004FF000514FF08053FFF7A4BF66
:10406000DFF848C170B51CEA111E1EBF1CEA13150B
:104070009EEA0C0F95EA0C0F00F06F8081EA0304B2
:1040800023EA4C134EEAD47E21EA4C1141F480110C
:1040900043F48013AE44A1FB024CA0FB0365AEF1D8
:1040A0007F7E361955EB0C05A1FB034C4CF1000348
:1040B000A0FB021C16EB0C06654153F100030942FC
:1040C00018BF46F0010613F4007F0BD14FEA03310D
:1040D0004FEA0530340341EA155140EA16506FF0BB
:1040E00003020AE04FEAC3214FEAC520F40241EA85
:1040F000555140EA56506FF0020202EB2E4201EB9E
:10410000025585EACE710AD05FEA440C18BF24F04C
:10411000004450F1000041F1000120EAD47040F267
:10412000FE7C624500D270BDA84214BF4FF08044AF
:104130004FF04044002E08BF0024BEF1806FA8BF9E
:10414000A1F1C041BDE8704080F282804FF00000D4
:1041500001F1C04101F0004170479EEA0C0F0CEAEA
:10416000131518BF95EA0C0F06D04FF0000081EA36
:10417000030E0EF0004170BD00F01CF88900013EF6
:1041800000F007B800F009B84FEA430C5FEA5C5C46
:1041900008D081EA030100F05BB84FEA410C5FEA06
:1041A0005C5CF6D14FF00000014970470000FF074A
:1041B0000000F87F0EF1020E2EF0030E5EF8046B85
:1041C000364205D4012A43EB030515F5001F12D82A
:1041D000012841EB010C1CF5001F0CD80ED14FEA51
:1041E000D17C15F5001F0CEB4C0C0CF1020C08BF38
:1041F0004CEBD37C04E04FF0080C01E04FEAD37C99
:104200000CEB4C0526FA05F606F00706B6F1040C91
:1042100006D20EEB860CBDE870404CF0010C6047F6
:10422000DFE80CF0090B02024FF000414FF00000F4
:10423000A1F5002170BD19461046012851EB01047B
:1042400018BFD4F5001484BF002001F0004170BDF8
:104250000808A0F500114FEA3101704753EA010C3C
:1042600017D41CF5801F58BFBCF5801F00F10680D5
:104270008B4218BF704708BF8242704707D713F5BB
:10428000801F58BF11F5801F19D48B4270479B4285
:1042900070471CF5801F08D5BCF5801FF7D59942E3
:1042A00018BF704708BF904270474FF4001C1CEBCA
:1042B000430F38BF1CEB410F01D2994270470FB436
:1042C0000CBC03BCFFF7C1BE4FF04070E1EE100A1A
:1042D0007047FCF7C8BCFCF7FDBD00000000000003
:1042E000000000003031323334353637383941423E
:1042F0004344454640305800303132333435363748
:1043000038396162636465664030780004000008F3
:1043100000000000000000020001000010303132F7
:1043200033343536373839616263646566787000D6
:1043300030313233343536373839414243444546DB
:104340005850000002400000000000A000000000E3
:1043500005400000000000C8000000000C40000004
:104360000000409C00000000194000000020BCBE7E
:104370000000000034400000BFC91B8E0000000494
:10438000B5400000504BCFD06607E2CF01000000DF
:104390006C4100003E8251AADFEEA734010000000C
:1043A000D9420000DCB5A0E23A301F97FFFFFFFFC3
:1043B000B4450000FD25A0C8E9A3C14FFFFFFFFFE2
:1043C000FF3F00000000008000000000FF3F0000F1
:1043D00000000080000000002445000800000020CC
:1043E00088000000D0010008AC45000888000020CB
:1043F000A8060000EC0100081001000043000000C6
:10440000F8FFFFFF004040404040404040404141F5
:104410004141414040404040404040404040404099
:104420004040404040050202020202020202020233
:104430000202020202202020202020202020200230
:1044400002020202020290909090909010101010C0
:10445000101010101010101010101010101010105C
:1044600002020202020288888888888808080808F0
:1044700008080808080808080808080808080808BC
:1044800002020202400000000000000000000000E4
:10449000000000000000000000000000000000001C
:1044A000000000000000000000000000000000000C
:1044B00000000000000000000000000000000000FC
:1044C00000000000000000000000000000000000EC
:1044D00000000000000000000000000000000000DC
:1044E00000000000000000000000000000000000CC
:1044F00000000000000000000000000000000000BC
:1045000000000000000000001C000000430000004C
:10451000F8FFFFFF0C0000000E0000000F0000007D
:104520002E00000000000000080000000A0000004B
:10453000020000000600000004000000050000006A
:104540000100000009000000B90000007201000035
:10455000000000000000000000000000000000005B
:10456000000000000000000000000000000000004B
:1045700000000000A05F0000E80300000000000051
:10458000E803000000000000000000000000000040
:104590000000000000000000881300000000000080
:0C45A0000000000000000000000000000F
:040000050800019559
:00000001FF
